{
  "contractName": "CashOutSidechain",
  "abi": [
    {
      "constant": true,
      "inputs": [],
      "name": "owner",
      "outputs": [
        {
          "name": "",
          "type": "address"
        }
      ],
      "payable": false,
      "stateMutability": "view",
      "type": "function"
    },
    {
      "constant": false,
      "inputs": [
        {
          "name": "newOwner",
          "type": "address"
        }
      ],
      "name": "transferOwnership",
      "outputs": [],
      "payable": false,
      "stateMutability": "nonpayable",
      "type": "function"
    },
    {
      "constant": true,
      "inputs": [],
      "name": "token",
      "outputs": [
        {
          "name": "",
          "type": "address"
        }
      ],
      "payable": false,
      "stateMutability": "view",
      "type": "function"
    },
    {
      "inputs": [
        {
          "name": "_tomoCoinAddress",
          "type": "address"
        }
      ],
      "payable": false,
      "stateMutability": "nonpayable",
      "type": "constructor"
    },
    {
      "anonymous": false,
      "inputs": [
        {
          "indexed": false,
          "name": "_user",
          "type": "address"
        },
        {
          "indexed": false,
          "name": "_value",
          "type": "uint256"
        }
      ],
      "name": "CashOut",
      "type": "event"
    },
    {
      "constant": false,
      "inputs": [
        {
          "name": "_user",
          "type": "address"
        },
        {
          "name": "_value",
          "type": "uint256"
        }
      ],
      "name": "cashOut",
      "outputs": [],
      "payable": false,
      "stateMutability": "nonpayable",
      "type": "function"
    }
  ],
  "bytecode": "0x6060604052341561000f57600080fd5b60405160208061053a83398101604052808051906020019091905050336000806101000a81548173ffffffffffffffffffffffffffffffffffffffff021916908373ffffffffffffffffffffffffffffffffffffffff16021790555080600160006101000a81548173ffffffffffffffffffffffffffffffffffffffff021916908373ffffffffffffffffffffffffffffffffffffffff1602179055505061047e806100bc6000396000f300606060405260043610610062576000357c0100000000000000000000000000000000000000000000000000000000900463ffffffff16806322405443146100675780638da5cb5b146100a9578063f2fde38b146100fe578063fc0c546a14610137575b600080fd5b341561007257600080fd5b6100a7600480803573ffffffffffffffffffffffffffffffffffffffff1690602001909190803590602001909190505061018c565b005b34156100b457600080fd5b6100bc610332565b604051808273ffffffffffffffffffffffffffffffffffffffff1673ffffffffffffffffffffffffffffffffffffffff16815260200191505060405180910390f35b341561010957600080fd5b610135600480803573ffffffffffffffffffffffffffffffffffffffff16906020019091905050610357565b005b341561014257600080fd5b61014a61042c565b604051808273ffffffffffffffffffffffffffffffffffffffff1673ffffffffffffffffffffffffffffffffffffffff16815260200191505060405180910390f35b6000809054906101000a900473ffffffffffffffffffffffffffffffffffffffff1673ffffffffffffffffffffffffffffffffffffffff163373ffffffffffffffffffffffffffffffffffffffff161415156101e757600080fd5b600160009054906101000a900473ffffffffffffffffffffffffffffffffffffffff1673ffffffffffffffffffffffffffffffffffffffff166347e7ef2483836040518363ffffffff167c0100000000000000000000000000000000000000000000000000000000028152600401808373ffffffffffffffffffffffffffffffffffffffff1673ffffffffffffffffffffffffffffffffffffffff16815260200182815260200192505050602060405180830381600087803b15156102ab57600080fd5b5af115156102b857600080fd5b50505060405180519050507fab933177d8753a66dd869151cf9aa88649e067b7a4e2dad9d5d192d61cf593b08282604051808373ffffffffffffffffffffffffffffffffffffffff1673ffffffffffffffffffffffffffffffffffffffff1681526020018281526020019250505060405180910390a15050565b6000809054906101000a900473ffffffffffffffffffffffffffffffffffffffff1681565b6000809054906101000a900473ffffffffffffffffffffffffffffffffffffffff1673ffffffffffffffffffffffffffffffffffffffff163373ffffffffffffffffffffffffffffffffffffffff161415156103b257600080fd5b600073ffffffffffffffffffffffffffffffffffffffff168173ffffffffffffffffffffffffffffffffffffffff1614151561042957806000806101000a81548173ffffffffffffffffffffffffffffffffffffffff021916908373ffffffffffffffffffffffffffffffffffffffff1602179055505b50565b600160009054906101000a900473ffffffffffffffffffffffffffffffffffffffff16815600a165627a7a72305820f250fda1fd11954cdb55b26c2cbf3f0d74e50b936cd542c8c9a941cc6aa3bdc90029",
  "source": "pragma solidity ^0.4.18;\n\nimport \"./TomoCoinSidechain.sol\";\n\ncontract CashInSidechain is Ownable {\n  TomoCoinSidechain public token;\n  address public tomoCommunityDeposit;\n\n  event CashIn( address _user, uint _value );\n\n  function CashInSidechain(\n    TomoCoinSidechain _tomoCoinAddress,\n    address _tomoCommunityDeposit\n  )\n  {\n    token = TomoCoinSidechain(_tomoCoinAddress);\n    tomoCommunityDeposit = _tomoCommunityDeposit;\n  }\n\n  function cashIn(address _user, uint256 _value) onlyOwner {\n    token.transferFrom(tomoCommunityDeposit, _user, _value);\n    CashIn(_user, _value);\n  }\n}\n\ncontract CashOutSidechain is Ownable {\n  TomoCoinSidechain public token;\n\n  event CashOut( address _user, uint _value );\n\n  function CashOutSidechain(\n    TomoCoinSidechain _tomoCoinAddress\n  )\n  {\n    token = TomoCoinSidechain(_tomoCoinAddress);\n  }\n\n  function cashOut(address _user, uint256 _value) onlyOwner {\n    token.deposit(_user, _value);\n    CashOut(_user, _value);\n  }\n}\n\ncontract TransferSidechain is Ownable {\n  TomoCoinSidechain public token;\n  address public tomoCommunityDeposit;\n\n  event TransferX( address _from, address _to, uint _value );\n\n  function TransferSidechain(\n    TomoCoinSidechain _tomoCoinAddress,\n    address _tomoCommunityDeposit\n  )\n  {\n    token = TomoCoinSidechain(_tomoCoinAddress);\n    tomoCommunityDeposit = _tomoCommunityDeposit;\n  }\n\n  function transferX(address _from, address _to, uint256 _value) onlyOwner {\n    token.deposit(_from, _value);\n    token.transferFrom(tomoCommunityDeposit, _to, _value);\n    TransferX(_from, _to, _value);\n  }\n}\n",
  "sourcePath": "/home/vagrant/projects/crosschain-transfer-demo/contracts/TomoCoinProxySidechain.sol",
  "compiler": {
    "name": "solc",
    "version": "0.4.21+commit.dfe3193c.Emscripten.clang"
  },
  "schemaVersion": "2.0.0",
  "updatedAt": "2018-05-24T02:40:38.816Z"
}